S01300005457495F41544D454741382E73726563D7
S113000012C019C018C017C016C015C014C013C040
S113001012C011C010C00FC00EC00DC00CC00BC068
S11300200AC009C008C011241FBECFE5D4E0DEBF5A
S1130030CDBF60D077C0E4CF86B7846E86BF86B765
S11300408F7E86BF06B607FEFDCF91B1987F81E013
S1130050983009F080E0089586B7806886BF86B737
S11300608F7D86BF86B7846186BF91B1987F81E01A
S1130070903A09F080E0089583B984E886BF06B613
S113008007FEFDCF81B1887F883159F081B1887F27
S1130090883249F091B1987F81E0903429F080E072
S11300A0089581E0089581E00895CF93DF93C82FE8
S11300B0D62F80E0C1DF882391F080EDDDDF882337
S11300C081F08C2FD9DF882371F08D2FD5DF882321
S11300D061F0C2DF91E0811109C090E007C090E0B7
S11300E005C090E003C090E001C090E0892FDF914B
S11300F0CF910895B89AC09861E083E0D6DF66E2B4
S113010084E0D3DF60E185E0D0DF64E186E0CDDF29
S113011060E080E0CADF69E581E0C7DF61E782E093
S10B0120C4DFFFCFF894FFCF08
S9030000FC
